:100000000C943E030C9466030C9466030C946603F4
:100010000C94C30C0C9466030C9466030C94660356
:100020000C9466030C9466030C9466030C94FD1404
:100030000C9466030C9466030C9466030C9466039C
:100040000C94E6240C9466030C9402280C94342837
:100050000C9466030C9466030C9466030C9466037C
:100060000C945A1E0C9466033A0B3C0B3E0B400B4F
:10007000420B440B460B480B4A0B4C0B4E0B500BE0
:10008000520B540B560B580B5A0B5C0B3D11651160
:1000900047116C118612EA131114005EBCE2613F35
:1000A000DD83C29C7E20A3FD1F419DC3217FFCA256
:1000B000401E5F01E3BD3E6082DC237D9FC1421C88
:1000C000FEA0E1BF5D0380DE3C62BEE0025CDF813A
:1000D000633D7C22C09E1D43A1FF4618FAA42779E8
:1000E0009BC584DA3866E5BB5907DB856739BAE416
:1000F00006581947A5FB7826C49A653BD987045A48
:10010000B8E6A7F91B45C6987A24F8A6441A99C7F9
:10011000257B3A6486D85B05E7B98CD2306EEDB3A7
:10012000510F4E10F2AC2F7193CD114FADF3702ED5
:10013000CC92D38D6F31B2EC0E50AFF1134DCE9007
:10014000722C6D33D18F0C52B0EE326C8ED0530DB9
:10015000EFB1F0AE4C1291CF2D73CA947628ABF567
:1001600017490856B4EA6937D58B5709EBB5366895
:100170008AD495CB2977F4AA4816E9B7550B88D6C7
:10018000346A2B7597C94A14F6A8742AC896154B79
:10019000A9F7B6E80A54D7896B35050820B10000E5
:1001A00000000000002F00000007000700147F146B
:1001B0007F14242A7F2A12231308646236495522A9
:1001C000500005030000001C2241000041221C00D9
:1001D00014083E081408083E08080000A060000843
:1001E00008080808006060000020100804023E5162
:1001F00049453E00427F4000426151494621414508
:100200004B311814127F1027454545393C4A49495E
:100210003001710905033649494936064949291E05
:100220000036360000005636000008142241001443
:100230001414141400412214080201510906324911
:1002400059513E7C1211127C7F494949363E414149
:1002500041227F4141221C7F494949417F090909C7
:10026000013E4149497A7F0808087F00417F4100EB
:100270002040413F017F081422417F404040407FA1
:10028000020C027F7F0408107F3E4141413E7F09FE
:100290000909063E4151215E7F091929464649490F
:1002A000493101017F01013F4040403F1F20402074
:1002B0001F3F4038403F6314081463070870080765
:1002C0006151494543007F4141000106083040002B
:1002D00041417F00040201020440404040400003CD
:1002E00005000020545454787F484444383844442E
:1002F0004420384444487F3854545418087E090137
:100300000218A4A4A47C7F0804047800447D400063
:100310004080847D007F1028440000417F40007CA5
:10032000041804787C080404783844444438FC24D5
:1003300024241818242418FC7C0804040848545465
:100340005420043F4440203C4040207C1C2040205E
:100350001C3C4030403C44281028441CA0A0A07CF9
:100360004464544C4400107C82000000FF000000F4
:10037000827C100008040810087C1211127C7F494E
:100380004949317F4545453A7F01010103603F21DD
:100390003F607F49494941730C7F0C732141494DAE
:1003A000337F1008047F7E2011087E7F08142241CD
:1003B000403F01017F7F0608067F7F0808087F3ED7
:1003C0004141413E7F0101017F7F090909063E410C
:1003D00041412203017F010361261806011C227F8F
:1003E000221C63140814633F20203F60070808089C
:1003F0007F7F407F407F3F203F207F017F48483004
:100400007F4878007F7F484830004149492A1C7F57
:10041000103E413E661909097F20545478403E49F8
:100420004545387E4A4A34007C04040C0038454572
:10043000493E38545454184C307C304C24424A3491
:10044000007C20107C007C21117C007C1028440062
:10045000403C04047C7C0810087C7C10107C003834
:10046000444444387C04047C00FC18242418384498
:1004700044442804047C04044C9090907C18247E0E
:10048000241844281028443C20203C601C10107C78
:10049000007C407C407C3C203C207C047C507000F4
:1004A0007C5070007C7C50700000424252523C7C78
:1004B00010384438402C127E007E4B4A4B4238554F
:1004C0005455187C0405040000780A09003E494987
:1004D0004122385454442800417F410000447D406B
:1004E0000000457C450000457C410023443904035D
:1004F00024493209047E020202017C040402000045
:100500004A552900000609090644445F44447C100A
:10051000103C401F1C1F1E1F1E1F1F1E1F1E1F00E2
:1005200000000800020100000304070000000000B2
:10053000000000010204081020408001020408109D
:10054000200102040810200404040404040404022A
:10055000020202020203030303030300000000235C
:10056000002600290000000000250028002B0000C4
:10057000000000240027002A0000407A10F35A00EF
:10058000A0724E18090010A5D4E80000E8764817BC
:100590000000E40B54020000CA9A3B000000E1F5A1
:1005A00005000080969800000040420F000000A067
:1005B0008601000000102700000000E80300000092
:1005C000006400000000000A0000000000010000BC
:1005D0000000002C76D888DC674F0823DFC1DFAE2F
:1005E00059E1B1B796E5E3E453C63AE651997696F8
:1005F000E8E6C28426EB898C9B62ED407C6FFCEFC1
:10060000BC9C9F40F2BAA56FA5F490055A2AF75CEE
:10061000936B6CF9676DC11BFCE0E40D47FEF520A0
:10062000E6B500D0ED902E03009435770500808468
:100630001E080000204E0A000000C80C333333337C
:100640000F986E12831141EF8D2114893BE65516E8
:10065000CFFEE6DB18D1844B381BF77C1D901DA420
:10066000BBE424203284725E228100C9F124ECA113
:10067000E53D2700D814701D3120642811241FBEC9
:10068000CFEFD8E0DEBFCDBF14E0A0E0B1E0EEE8F0
:10069000FDE502C005900D92A633B107D9F726E01B
:1006A000A6E3B4E001C01D92A93BB207E1F716E052
:1006B000CCE7D6E004C02297FE010E94EC2BC437A1
:1006C000D107C9F70E9443290C94C52E0C94000051
:1006D0000C94592C0C94612C8EBD00000DB407FEB7
:1006E000FDCF8EB508950F931F9310926A048DEF7E
:1006F00095E00E947A2120E040E063E471E08DEF14
:1007000095E00E94B9206091D00470E080E090E014
:100710000E944C2A00E714E020E044E00E940A2CEA
:1007200022E040E0B8018DEF95E00E94B92022E080
:1007300040E363E571E08DEF95E00E94B92024E08D
:1007400040E06DE271E08DEF95E00E94B92060918C
:10075000A20470E080E090E00E944C2A20E044E097
:100760000E940A2C26E040E0B8018DEF95E00E943F
:10077000B92026E040E361E471E08DEF95E01F9140
:100780000F910C94B9200F931F9381E080936A041A
:1007900084E080937A048091CF0490E0A0E0B0E000
:1007A00080937F0490938004A0938104B09382048B
:1007B00084E690E0A0E0B0E080937B0490937C041A
:1007C000A0937D04B0937E048DEF95E00E947A2182
:1007D00022E040E063E471E08DEF95E00E94B920F3
:1007E00060917F04709180048091810490918204D3
:1007F0000E944C2A00E714E020E044E00E940A2C0A
:1008000024E040E0B8018DEF95E00E94B92024E09B
:1008100040E363E571E08DEF95E01F910F910C943B
:10082000B9200F931F9381E080936A0410927A0499
:1008300084EB90E0A0E0B0E080937B0490937C0494
:10084000A0937D04B0937E048091800190E0A0E0AD
:10085000B0E080937F0490938004A0938104B093D0
:1008600082048DEF95E00E947A2122E040E064E06E
:1008700071E08DEF95E00E94B92060917F04709146
:10088000800480918104909182040E944C2A00E7A8
:1008900014E020E044E00E940A2C24E040E0B8018B
:1008A0008DEF95E00E94B92024E048E462E871E011
:1008B0008DEF95E01F910F910C94B9200F931F932A
:1008C00081E080936A0480937A0480917F0190E0B4
:1008D000A0E0B0E080937F0490938004A093810413
:1008E000B093820484EB90E0A0E0B0E080937B04BE
:1008F00090937C04A0937D04B0937E048DEF95E0EB
:100900000E947A2122E040E064E071E08DEF95E002
:100910000E94B92060917F047091800480918104CD
:10092000909182040E944C2A00E714E020E044E009
:100930000E940A2C24E040E0B8018DEF95E00E946F
:10094000B92024E048E462E871E08DEF95E01F9162
:100950000F910C94B9200F931F9381E080936A0448
:100960008093AC0485E080937A048091CB049091CD
:10097000CC04A091CD04B091CE0480937F049093D9
:100980008004A0938104B09382048FEF9FEFDC0179
:1009900080937B0490937C04A0937D04B0937E04A9
:1009A0008DEF95E00E947A2122E040E065E871E059
:1009B0008DEF95E00E94B92060917F0470918004D2
:1009C000809181049091820422EC31E040E050E07B
:1009D0000E94A92B3093AE042093AD04B90180E0AE
:1009E00090E00E944C2A00E714E020E044E00E94DE
:1009F0000A2C24E040E0B8018DEF95E00E94B92078
:100A000024E048E465E971E08DEF95E01F910F91D6
:100A10000C94B9200F931F9381E080936A04809314
:100A2000AC0489E080937A048091C7049091C80453
:100A3000A091C904B091CA0480937F04909380046C
:100A4000A0938104B09382048FEF9FEFDC01809329
:100A50007B0490937C04A0937D04B0937E048DEF7F
:100A600095E00E947A2122E040E069E971E08DEF93
:100A700095E00E94B92060917F047091800480917C
:100A800081049091820422EC31E040E050E00E9429
:100A9000A92B3093AE042093AD04B90180E090E01F
:100AA0000E944C2A00E714E020E044E00E940A2C57
:100AB00024E040E0B8018DEF95E00E94B92024E0E9
:100AC00048E465E971E08DEF95E01F910F910C947A
:100AD000B9200F931F9381E080936A048093AC0444
:100AE0008DE080937A048091C3049091C404A09116
:100AF000C504B091C60480937F0490938004A093B2
:100B00008104B09382048FEF9FEFDC0180937B041C
:100B100090937C04A0937D04B0937E048DEF95E0C8
:100B20000E947A2122E040E069EA71E08DEF95E0D1
:100B30000E94B92060917F047091800480918104AB
:100B40009091820422EC31E040E050E00E94A92B19
:100B50003093AE042093AD04B90180E090E00E9490
:100B60004C2A00E714E020E044E00E940A2C24E034
:100B700040E0B8018DEF95E00E94B92024E048E400
:100B800065E971E08DEF95E01F910F910C94B9200C
:100B90000F931F9381E080936A048093AC0481E1FA
:100BA00080937A048091BF049091C004A091C10405
:100BB000B091C20480937F0490938004A093810439
:100BC000B09382048FEF9FEFDC0180937B049093BE
:100BD0007C04A0937D04B0937E048DEF95E00E9489
:100BE0007A2122E040E069EB71E08DEF95E00E9410
:100BF000B92060917F04709180048091810490916C
:100C0000820422EC31E040E050E00E94A92B3093B6
:100C1000AE042093AD04B90180E090E00E944C2A1C
:100C200000E714E020E044E00E940A2C24E040E0C9
:100C3000B8018DEF95E00E94B92024E048E465E911
:100C400071E08DEF95E01F910F910C94B9200F93F7
:100C50001F9381E080936A0489E180937A048091F4
:100C6000A70490E0A0E0B0E080937F04909380041C
:100C7000A0938104B093820481E090E0A0E0B0E012
:100C800080937B0490937C04A0937D04B0937E04B6
:100C90008DEF95E00E947A2122E040E069EC71E05E
:100CA0008DEF95E00E94B92060917F0470918004DF
:100CB00080918104909182040E944C2A00E714E004
:100CC00020E044E00E940A2C24E040E0B8018DEFCF
:100CD00095E01F910F910C94B9200F931F9381E021
:100CE00080936A048AE180937A048091A60490E05C
:100CF000A0E0B0E080937F0490938004A0938104EF
:100D0000B093820481E090E0A0E0B0E080937B04A7
:100D100090937C04A0937D04B0937E048DEF95E0C6
:100D20000E947A2122E040E069ED71E08DEF95E0CC
:100D30000E94B92060917F047091800480918104A9
:100D4000909182040E944C2A00E714E020E044E0E5
:100D50000E940A2C24E040E0B8018DEF95E01F913D
:100D60000F910C94B9200F931F9381E080936A0434
:100D70008BE180937A048091A50490E0A0E0B0E03C
:100D800080937F0490938004A0938104B0938204A5
:100D900081E090E0A0E0B0E080937B0490937C043D
:100DA000A0937D04B0937E048DEF95E00E947A219C
:100DB00022E040E069EE71E08DEF95E00E94B920FD
:100DC00060917F04709180048091810490918204ED
:100DD0000E944C2A00E714E020E044E00E940A2C24
:100DE00024E040E0B8018DEF95E01F910F910C9445
:100DF000B9200F931F9381E080936A048CE1809364
:100E00007A048091A40490E0A0E0B0E080937F0495
:100E100090938004A0938104B093820481E090E0D9
:100E2000A0E0B0E080937B0490937C04A0937D04C9
:100E3000B0937E048DEF95E00E947A2122E040E09D
:100E400069EF71E08DEF95E00E94B92060917F0419
:100E50007091800480918104909182040E944C2AB8
:100E600000E714E020E044E00E940A2C24E040E087
:100E7000B8018DEF95E01F910F910C94B9200F935D
:100E80001F9381E080936A048DE180937A048091BE
:100E9000A30490E0A0E0B0E080937F0490938004EE
:100EA000A0938104B093820484E690E0A0E0B0E0D7
:100EB00080937B0490937C04A0937D04B0937E0484
:100EC0008DEF95E00E947A2122E040E06DE271E032
:100ED0008DEF95E00E94B92060917F0470918004AD
:100EE00080918104909182040E944C2A00E714E0D2
:100EF00020E044E00E940A2C24E040E0B8018DEF9D
:100F000095E00E94B92024E040E361E471E08DEFB8
:100F100095E01F910F910C94B9208F929F92AF9200
:100F2000BF92CF92DF92EF92FF920F931F93CF93D6
:100F300081E080936A04809387048EE180937A0431
:100F4000C0909E04D0909F04E090A004F090A10473
:100F500080E1C8168EE0D806E104F10450F0C70124
:100F6000B60120E13EE040E050E00E94A92BC22FF4
:100F700001C0C0E0C0938D04C701B6010E944C2A95
:100F80006093890470938A0480938B0490938C04FB
:100F900020E030E041E655E40E94B8294B015C01B5
:100FA0006C2F70E080E090E00E944E2A9B01AC0123
:100FB000C501B4010E94532920E030E040E752E42B
:100FC0000E94FE2A0E94202A60938804C0927F0417
:100FD000D0928004E0928104F092820484E491E54E
:100FE000A1E0B0E080937B0490937C04A0937D0407
:100FF000B0937E048DEF95E00E947A2122E040E0DC
:1010000061E271E08DEF95E00E94B92024E040E0BC
:1010100068E171E08DEF95E00E94B92060918D0448
:1010200070E080E090E00E944C2A00E714E020E0AD
:1010300044E00E940A2C24E048E4B8018DEF95E0DA
:101040000E94B92026E040E06FE071E08DEF95E06E
:101050000E94B9206091880470E080E090E00E94D6
:101060004C2A20E044E00E940A2C26E048E4B80123
:101070008DEF95E0CF911F910F91FF90EF90DF9052
:10108000CF90BF90AF909F908F900C94B9208F928B
:101090009F92AF92BF92CF92DF92EF92FF920F9307
:1010A0001F93CF9381E080936A048093870482E248
:1010B00080937A04C0909A04D0909B04E0909C04A2
:1010C000F0909D0480E1C8168EE0D806E104F1049A
:1010D00050F0C701B60120E13EE040E050E00E9440
:1010E000A92BC22F01C0C0E0C0938D04C701B60177
:1010F0000E944C2A6093890470938A0480938B0425
:1011000090938C0420E030E041E655E40E94B82939
:101110004B015C016C2F70E080E090E00E944E2A51
:101120009B01AC01C501B4010E94532920E030E0CD
:1011300040E752E40E94FE2A0E94202A609388041D
:10114000C0927F04D0928004E0928104F0928204E5
:1011500084E491E5A1E0B0E080937B0490937C046B
:10116000A0937D04B0937E048DEF95E00E947A21D8
:1011700022E040E061E271E08DEF95E00E94B9204D
:1011800024E040E068E171E08DEF95E00E94B92035
:1011900060918D0470E080E090E00E944C2A00E7AE
:1011A00014E020E044E00E940A2C24E048E4B80166
:1011B0008DEF95E00E94B92026E040E06FE071E0FD
:1011C0008DEF95E00E94B9206091880470E080E086
:1011D00090E00E944C2A20E044E00E940A2C26E085
:1011E00048E4B8018DEF95E0CF911F910F91FF90EA
:1011F000EF90DF90CF90BF90AF909F908F900C9426
:10120000B9208F929F92AF92BF92CF92DF92EF92CE
:10121000FF920F931F93CF9381E080936A04809392
:10122000870486E280937A04C0909604D090970455
:10123000E0909804F090990480E1C8168EE0D806FA
:10124000E104F10450F0C701B60120E13EE040E0C6
:1012500050E00E94A92BC22F01C0C0E0C0938D04B2
:10126000C701B6010E944C2A6093890470938A04D6
:1012700080938B0490938C0420E030E041E655E4A9
:101280000E94B8294B015C016C2F70E080E090E077
:101290000E944E2A9B01AC01C501B4010E94532952
:1012A00020E030E040E752E40E94FE2A0E94202A1B
:1012B00060938804C0927F04D0928004E0928104FD
:1012C000F092820484E491E5A1E0B0E080937B0495
:1012D00090937C04A0937D04B0937E048DEF95E001
:1012E0000E947A2122E040E061E271E08DEF95E01A
:1012F0000E94B92024E040E068E171E08DEF95E0C4
:101300000E94B92060918D0470E080E090E00E941E
:101310004C2A00E714E020E044E00E940A2C24E07C
:1013200048E4B8018DEF95E00E94B92026E040E046
:101330006FE071E08DEF95E00E94B9206091880424
:1013400070E080E090E00E944C2A20E044E00E949F
:101350000A2C26E048E4B8018DEF95E0CF911F916B
:101360000F91FF90EF90DF90CF90BF90AF909F9044
:101370008F900C94B9208F929F92AF92BF92CF9290
:10138000DF92EF92FF920F931F93CF9381E08093B0
:101390006A04809387048AE280937A04C09092045E
:1013A000D0909304E0909404F090950480E1C816E6
:1013B0008EE0D806E104F10450F0C701B60120E147
:1013C0003EE040E050E00E94A92BC22F01C0C0E0E7
:1013D000C0938D04C701B6010E944C2A6093890412
:1013E00070938A0480938B0490938C0420E030E007
:1013F00041E655E40E94B8294B015C016C2F70E076
:1014000080E090E00E944E2A9B01AC01C501B4012E
:101410000E94532920E030E040E752E40E94FE2A77
:101420000E94202A60938804C0927F04D092800496
:10143000E0928104F092820484E491E5A1E0B0E0BE
:1014400080937B0490937C04A0937D04B0937E04EE
:101450008DEF95E00E947A2122E040E061E271E0A8
:101460008DEF95E00E94B92024E040E068E171E052
:101470008DEF95E00E94B92060918D0470E080E0CE
:1014800090E00E944C2A00E714E020E044E00E9433
:101490000A2C24E048E4B8018DEF95E00E94B920C1
:1014A00026E040E06FE071E08DEF95E00E94B9200A
:1014B0006091880470E080E090E00E944C2A20E077
:1014C00044E00E940A2C26E048E4B8018DEF95E044
:1014D000CF911F910F91FF90EF90DF90CF90BF9031
:1014E000AF909F908F900C94B9208F929F92AF9263
:1014F000BF92CF92DF92EF92FF920F931F93CF9301
:1015000081E080936A04809387048EE280937A045A
:10151000C0908E04D0908F04E0909004F0909104DD
:1015200080E1C8168EE0D806E104F10450F0C7014E
:10153000B60120E13EE040E050E00E94A92BC22F1E
:1015400001C0C0E0C0938D04C701B6010E944C2ABF
:101550006093890470938A0480938B0490938C0425
:1015600020E030E041E655E40E94B8294B015C01DF
:101570006C2F70E080E090E00E944E2A9B01AC014D
:10158000C501B4010E94532920E030E040E752E455
:101590000E94FE2A0E94202A60938804C0927F0441
:1015A000D0928004E0928104F092820484E491E578
:1015B000A1E0B0E080937B0490937C04A0937D0431
:1015C000B0937E048DEF95E00E947A2122E040E006
:1015D00061E271E08DEF95E00E94B92024E040E0E7
:1015E00068E171E08DEF95E00E94B92060918D0473
:1015F00070E080E090E00E944C2A00E714E020E0D8
:1016000044E00E940A2C24E048E4B8018DEF95E004
:101610000E94B92026E040E06FE071E08DEF95E098
:101620000E94B9206091880470E080E090E00E9400
:101630004C2A20E044E00E940A2C26E048E4B8014D
:101640008DEF95E0CF911F910F91FF90EF90DF907C
:10165000CF90BF90AF909F908F900C94B9208091C5
:10166000690490E08231910548F5FC01EC5CFF4F84
:101670000C94EA2B0C9473030C94C3030C94110484
:101680000C945E040C94AB040C940A050C9469054C
:101690000C94C8050C9427060C946D060C94B306A4
:1016A0000C94F9060C943F070C948D070C94470892
:1016B0000C9401090C94BB090C94750A0895CF92FF
:1016C000DF92EF92FF92CF93DF93EC016A017B01EF
:1016D000642F0E946A039927F7FC9A958F2D7E2D1F
:1016E0006D2DCE0101960E946A03B701992777FDFF
:1016F0009095892FCE0102960E946A036F2D77275D
:1017000088279927CE010396DF91CF91FF90EF9024
:10171000DF90CF900C946A03CF92DF92EF92FF920A
:101720000F931F93CF936B017C01CB010E94680341
:10173000182FC60101960E946803C82FC6010296A1
:101740000E946803082FC60103960E946803C82EF2
:101750008C2F90E0A0E0B0E06627782F892F9A2F99
:10176000610F711D811D911D10E020E030E0980196
:1017700011270027600F711F821F931FD12CE12CAE
:10178000F12CFC2CEE24DD24CC246C0D7D1D8E1D53
:101790009F1DCF911F910F91FF90EF90DF90CF9001
:1017A000089580E090E00E9468038093800181E0CA
:1017B00090E00E94680380937F0184E090E00E94A3
:1017C00068038093CF0465E070E080E090E00E94C1
:1017D0008C0B6093CB047093CC048093CD049093D6
:1017E000CE0469E070E080E090E00E948C0B609392
:1017F000C7047093C8048093C9049093CA046DE031
:1018000070E080E090E00E948C0B6093C3047093C2
:10181000C4048093C5049093C60461E170E080E045
:1018200090E00E948C0B6093BF047093C00480937F
:10183000C1049093C20465E170E080E090E00E94F2
:101840008C0B6093A8047093A9048093AA049093CE
:10185000AB0489E190E00E9468038093A7048AE1C9
:1018600090E00E9468038093A6048BE190E00E94C0
:1018700068038093A5048CE190E00E946803809344
:10188000A4048DE190E00E9468038093A3046EE1BC
:1018900070E080E090E00E948C0B60939E04709357
:1018A0009F048093A0049093A10462E270E080E022
:1018B00090E00E948C0B60939A0470939B04809339
:1018C0009C0490939D0466E270E080E090E00E94AA
:1018D0008C0B609396047093970480939804909374
:1018E00099046AE270E080E090E00E948C0B6093C3
:1018F00092047093930480939404909395046EE201
:1019000070E080E090E00E948C0B60938E047093F6
:101910008F048093900490939104089560E08EE08A
:101920000E94252661E08EE00E945E2660E08FE046
:101930000E94252661E08FE00E945E2660E080E143
:101940000E94252661E080E10E945E2660E081E140
:101950000E94252661E081E10C945E26F89482E0E5
:10196000809368008FE080936C007894089560E025
:1019700087E00E945E268091D9040E946C0361E09A
:1019800087E00C945E261F920F920FB60F921124DF
:101990002F933F934F935F936F937F938F939F9377
:1019A000AF93BF93EF93FF938EE00E949426892B11
:1019B00009F03DC08091A7048130C9F580916F0482
:1019C0008130A9F58091D104811131C0F8948091C2
:1019D000BB049091BC04A091BD04B091BE040196DB
:1019E000A11DB11D8093BB049093BC04A093BD04C2
:1019F000B093BE044091BB045091BC046091BD04FF
:101A00007091BE048091CB049091CC04A091CD0440
:101A1000B091CE0484179507A607B70738F48091D4
:101A2000D9048F778093D9040E94B70C78948FE003
:101A30000E949426892B09F03DC08091A604813034
:101A4000C9F580916F048130A9F58091D10481118D
:101A500031C0F8948091B7049091B804A091B90472
:101A6000B091BA040196A11DB11D8093B704909363
:101A7000B804A093B904B093BA044091B70450914C
:101A8000B8046091B9047091BA048091C704909130
:101A9000C804A091C904B091CA0484179507A60789
:101AA000B70738F48091D9048F7B8093D9040E94C2
:101AB000B70C789480E10E949426892B09F03DC0F0
:101AC0008091A5048130C9F580916F048130A9F51A
:101AD0008091D104811131C0F8948091B304909128
:101AE000B404A091B504B091B6040196A11DB11D36
:101AF0008093B3049093B404A093B504B093B60458
:101B00004091B3045091B4046091B5047091B6044F
:101B10008091C3049091C404A091C504B091C604FF
:101B200084179507A607B70738F48091D9048F7DED
:101B30008093D9040E94B70C789481E10E94942686
:101B4000892B09F03DC08091A4048130C9F58091B2
:101B50006F048130A9F58091D104811131C0F894CE
:101B60008091AF049091B004A091B104B091B204FF
:101B70000196A11DB11D8093AF049093B004A09372
:101B8000B104B093B2044091AF045091B00460919D
:101B9000B1047091B2048091BF049091C004A091EF
:101BA000C104B091C20484179507A607B70738F49B
:101BB0008091D9048F7E8093D9040E94B70C7894C9
:101BC000FF91EF91BF91AF919F918F917F916F9115
:101BD0005F914F913F912F910F900FBE0F901F90EB
:101BE0001895CF92DF92EF92FF92CF9360E084E05E
:101BF00095E00E94A0246B017C010E94202AC62F40
:101C00006093A204A7019601C701B6010E94612B4F
:101C100081111FC08091D104811108C08091A3045B
:101C20008C1720F461E083E00E945E268091D1044D
:101C300081110FC09091A2048091A304981748F4D9
:101C400060E083E0CF91FF90EF90DF90CF900C9415
:101C50005E26CF91FF90EF90DF90CF900895BC016A
:101C600082EE94E00E94451C0E94202A6093D004DA
:101C700008956091800170E085ED94E00E948C16DB
:101C800060917F0170E082ED94E00E948C1681E00B
:101C90008093D80408956AE070E085ED94E00E9496
:101CA0008C166AE070E082ED94E00E948C1610922F
:101CB000D804089582EE94E00E94B41B8AED94E06B
:101CC0000E942F0E8091D004813811F41092D0041C
:101CD0009091D0048091CF04891760F48091D10451
:101CE000811108C08091D804811104C0F8940E9429
:101CF000390E78949091D0048091CF04981760F4B5
:101D00008091D104811108C08091D804813021F4E0
:101D1000F8940E944B0E789408954F925F926F92C0
:101D20007F928F929F92AF92BF92CF92DF92EF926B
:101D3000FF920F931F93CF93DF93CDB7DEB7A0979A
:101D40000FB6F894DEBF0FBECDBFCE0107960E943E
:101D5000A222CE0107960E946E22609383047093A4
:101D6000840480938504909386046F8170E06053AF
:101D7000784FC12CE12C00E029854885CE010196E1
:101D80000E945A22CE0101960E946E222B013C0134
:101D900080919E0490919F04A091A004B091A10411
:101DA000480E591E6A1E7B1ECE0101960E946E22AD
:101DB0006B017C0180919A0490919B04A0919C04FA
:101DC000B0919D04C80ED91EEA1EFB1ECE010196DD
:101DD0000E946E226D877E878F87988B2091960454
:101DE000309197044091980450919904298B3A8B33
:101DF0004B8B5C8BCE0101960E946E226D8B7E8B8D
:101E00008F8B988F20919204309193044091940489
:101E100050919504298F3A8F4B8F5C8FCE0101969C
:101E20000E946E2220918E0430918F044091900484
:101E3000509191042D8F3E8F4F8F58A38090A8040E
:101E40009090A904A090AA04B090AB0484149504C7
:101E5000A604B70470F400918304109184042091C7
:101E6000850430918604401651066206730608F414
:101E70006AC08C149D04AE04BF0470F40091830406
:101E8000109184042091850430918604C016D106F7
:101E9000E206F30608F457C00D851E852F853889A4
:101EA000C988DA88EB88FC880C0D1D1D2E1D3F1D8E
:101EB00080169106A206B30668F4C0908304D09001
:101EC0008404E0908504F09086040C151D052E0511
:101ED0003F05C8F14D885E886F88788C298D3A8DD2
:101EE0004B8D5C8D420E531E641E751E841495042A
:101EF000A604B70468F4009183041091840420912F
:101F00008504309186044016510662067306D8F0A7
:101F1000CD8CDE8CEF8CF8A0C60ED71EE81EF91E05
:101F20008C149D04AE04BF0408F040C000918304EB
:101F3000109184042091850430918604C016D10646
:101F4000E206F30698F58091A7043091A60420914B
:101F5000A5049091A404811107C031110CC0211176
:101F600011C0911116C022C0813029F48091D9048A
:101F700080688093D904313029F48091D904806439
:101F80008093D904213029F48091D9048062809310
:101F9000D904913029F48091D90480618093D904C7
:101FA0000E94B70C81E080936F047894A0960FB6DE
:101FB000F894DEBF0FBECDBFDF91CF911F910F917F
:101FC000FF90EF90DF90CF90BF90AF909F908F9059
:101FD0007F906F905F904F900895AF92BF92CF9295
:101FE000DF92EF92FF920F931F93CF93DF9300D076
:101FF000CDB7DEB75B016A01BC0186E394E00E94C5
:102000002B2C01E010E086E394E0C016D10674F0BA
:10201000AE014F5F5F4FB5010E94322C7C010097EB
:1020200029F00F5F1F4F80E090E0EFCFC7010F90C6
:102030000F90DF91CF911F910F91FF90EF90DF9064
:10204000CF90BF90AF9008958DEF95E00E947A21D8
:10205000E0916904F0E0EE0FFF1FE85AFE4F41E007
:1020600050E069E172E0808191810E94ED0F22E0F1
:1020700040E0BC018DEF95E00E94B920E091690439
:10208000F0E0EE0FFF1FE85AFE4F42E050E069E13A
:1020900072E0808191810E94ED0F24E040E0BC015C
:1020A0008DEF95E00E94B920E0916904F0E0EE0F19
:1020B000FF1FE85AFE4F608171818CE196E00C941D
:1020C000E9280E948E0C0E94AE0CF89426E040E8AD
:1020D00055E260E070E08CE196E00E94A0270E944B
:1020E000F11684E095E00E944E2361E088E00E94B2
:1020F000252661E088E00E945E2661E087E00E947C
:10210000252660E087E00E945E2680E00E946C0346
:1021100061E087E00E945E2682EE94E00E94CE1A83
:1021200040E06AED74E082EE94E00E94461981116D
:1021300007C049E06AED74E082EE94E00E94581A0C
:1021400069E070E085ED94E00E94531665E070E070
:1021500082ED94E00E9453160E944B0E61E086E0EF
:102160000E94252661E083E00E94252660E086E04B
:102170000E945E2660E083E00E945E2660E084E1CB
:102180000E94252660E085E10E9425261092D90450
:102190000E94B70C8DE395E00E94E01C83E095E07F
:1021A0000E949C228DEF95E00E9499210E94D10B04
:1021B0000C9424102F923F924F925F926F927F92D5
:1021C0008F929F92AF92BF92CF92DF92EF92FF9247
:1021D0000F931F93CF93DF9360E088E00E945E2609
:1021E00061E088E00E945E2680E00E946C03382E49
:1021F00020906804821509F41AC328268093680485
:10220000C0E0D0E0B0E1CB2EBEE0DB2EE12CF12C23
:1022100012EC812E99249394A12CB12C20FE48C05D
:1022200030FE3EC0C130D105A1F064F4209709F022
:102230003FC01092D1041092D9040E94B70C0E94A2
:102240004B0E19C0C230D10559F0C330D10579F019
:102250002FC08091D104813059F51092D90414C057
:102260008091D104813021F50E944B0E21C08091D4
:10227000D1048130E9F460E00FC08091D104813055
:10228000B9F48FEF8093D9040E94B70C11C08091EC
:10229000D104813069F461E083E00E945E2608C0C9
:1022A000FE013197E730F10560F021E02093D10481
:1022B000269436942196C830D10509F0AFCF789492
:1022C000B6C2EA5BFF4F0C94EA2B8091D1048130B7
:1022D00079F70E94390EECCF80916A0481110CC00D
:1022E00080916904882311F0815002C080917C01A3
:1022F000809369040E94241080916A04813009F05F
:1023000060C08091870481115CC08091AC048130F1
:1023100009F057C080917F0490918004A0918104BE
:10232000B09182048E539E4FAF4FBF4F40917B04BC
:1023300050917C0460917D0470917E048417950710
:10234000A607B70740F480937F0490938004A0937E
:102350008104B09382048DEF95E00E947A2122E0FF
:1023600040E069E072E08DEF95E00E94B920609155
:102370007F04709180048091810490918204A50172
:1023800094010E94A92B3093AE042093AD04B901AF
:1023900080E090E00E944C2A00E714E020E044E056
:1023A0000E940A2C24E040E0B8018DEF95E00E94E5
:1023B000B92026E040E06BE172E08DEF95E00E94ED
:1023C000B92080916A04813009F04BC08091870464
:1023D000811147C08091AC04811143C080917F047A
:1023E00090918004A0918104B091820440917B047B
:1023F00050917C0460917D0470917E048417950750
:10240000A607B70758F40196A11DB11D80937F045C
:1024100090938004A0938104B09382048DEF95E0A3
:102420000E947A2122E040E069E072E08DEF95E0C1
:102430000E94B92060917F04709180048091810492
:10244000909182040E944C2A00E714E020E044E0CE
:102450000E940A2C24E040E0B8018DEF95E00E9434
:10246000B92080918704813009F022CF80916A04DD
:10247000813009F01DCF8091AC04811119CF80917A
:102480007F0490918004A0918104B0918204805FC8
:10249000914FAF4FBF4F40917B0450917C046091AE
:1024A0007D0470917E0484179507A607B70748F44A
:1024B00080937F0490938004A0938104B09382045E
:1024C00008C0C0927F04D0928004E0928104F09210
:1024D00082048DEF95E00E947A2122E040E069E0DD
:1024E00072E08DEF95E00E94B92040907F045090FB
:1024F0008004609081047090820420E142162EE0F6
:1025000052066104710408F401C1F8C080916A04A4
:1025100081110EC08091690490917C01891720F48B
:102520008F5F8093690402C0109269040E94241096
:1025300080916A04813009F059C08091870481112B
:1025400055C08091AC04813009F050C080917F0467
:1025500090918004A0918104B0918204823C21E09A
:102560009207A105B10561F0825C9140A109B10912
:1025700080937F0490938004A0938104B09382049D
:102580008DEF95E00E947A2122E040E069E072E060
:102590008DEF95E00E94B92060917F0470918004D6
:1025A0008091810490918204A50194010E94A92B3D
:1025B0003093AE042093AD04B90180E090E00E9416
:1025C0004C2A00E714E020E044E00E940A2C24E0BA
:1025D00040E0B8018DEF95E00E94B92026E040E090
:1025E0006BE172E08DEF95E00E94B92080916A0462
:1025F000813009F042C08091870481113EC08091F2
:10260000AC0481113AC080917F0490918004A09124
:102610008104B09182040097A105B10559F001979A
:10262000A109B10980937F0490938004A093810451
:10263000B09382048DEF95E00E947A2122E040E081
:1026400069E072E08DEF95E00E94B92060917F040F
:102650007091800480918104909182040E944C2AA0
:1026600000E714E020E044E00E940A2C24E040E06F
:10267000B8018DEF95E00E94B920809187048130E8
:1026800009F016CE80916A04813009F011CE809154
:10269000AC0481110DCE80917F0490918004A091B3
:1026A0008104B09182048C339105A105B10559F0E4
:1026B000CC97A109B10980937F0490938004A093E3
:1026C0008104B09382048DEF95E00E947A2122E08C
:1026D00040E069E072E08DEF95E00E94B920409003
:1026E0007F0450908004609081047090820480E1A7
:1026F00048168EE058066104710440F0C301B2012F
:10270000A70196010E94A92B122F01C010E010937F
:102710008D04C301B2010E944C2A60938904709316
:102720008A0480938B0490938C0420E030E041E68F
:1027300055E40E94B8292B013C01612F70E080E034
:1027400090E00E944E2A9B01AC01C301B2010E949D
:10275000532920E030E040E752E40E94FE2A0E9424
:10276000202A6093880424E040E068E171E08DEF66
:1027700095E00E94B92060918D0470E080E090E0C7
:102780000E944C2A00E714E020E044E00E940A2C5A
:1027900024E048E4B8018DEF95E00E94B92026E0DE
:1027A00040E06FE071E08DEF95E00E94B92060910C
:1027B000880470E080E090E00E944C2A20E044E031
:1027C0000E940A2C26E048E4B8018DEF95E00E94B3
:1027D000B9206ECD80916A048130D1F420917A04C1
:1027E000822F90E0253018F02951253028F460918F
:1027F0007F040E946A030AC040917F0450918004C4
:1028000060918104709182040E945F0B0E94D10B41
:1028100010926A04109287041092AC040E94241053
:1028200047CD21E020936A040E942F0B41CDDF9118
:10283000CF911F910F91FF90EF90DF90CF90BF90BD
:10284000AF909F908F907F906F905F904F903F9050
:102850002F9008950F931F93CF93DF9300D000D054
:1028600000D0CDB7DEB700916B0410916C042091BD
:102870006D0430916E04601B710B820B930B009101
:102880007D0110917E01222717FD2095322F06171A
:1028900017072807390708F07AC00E94302560938F
:1028A0006B0470936C0480936D0490936E040E948B
:1028B0005A0E0E94F10D84E10E94DF25853F914070
:1028C00044F085E10E94DF25843F914014F461E0EB
:1028D00001C060E086E00E945E2680916F04811155
:1028E00006C08091D104811102C00E948D0E80919A
:1028F0006F04813009F04BC08091D104811147C031
:102900008091D904811143C0CE0101960E94A22278
:10291000CE0101960E946E22AB01BC01409383045C
:102920005093840460938504709386044093A804B4
:102930005093A9046093AA047093AB0485E190E0DE
:102940000E945F0B1092BB041092BC041092BD0455
:102950001092BE041092B7041092B8041092B904F9
:102960001092BA041092B3041092B4041092B504F9
:102970001092B6041092AF041092B0041092B104F9
:102980001092B20410926F040E94D10B7894269694
:102990000FB6F894DEBF0FBECDBFDF91CF911F9170
:1029A0000F9108950E9430250E942A140C94DA1089
:1029B00026E046E164E084E095E00E942D2362E099
:1029C00085EF94E00E94601865EF74E082EE94E079
:1029D0000E94281985ED94E00E94B91582ED94E0DB
:1029E0000E94B9150E94302560936B0470936C04AB
:1029F00080936D0490936E0408951F920F920FB60A
:102A00000F9211242F933F934F935F936F937F9374
:102A10008F939F93AF93BF93EF93FF93809117058D
:102A200087FF05C010928500109284001AC0209183
:102A30001705332727FD30958091160590E028175C
:102A400039077CF480911705992787FD9095FC0143
:102A5000EE0FFF1FE80FF91FE85EFA4F808186FD39
:102A600015C0809117058F5F80931705209117057A
:102A7000332727FD30958091160590E028173907F8
:102A8000BCF4809117058C305CF112C08091170561
:102A9000992787FD9095FC01EE0FFF1FE80FF91FA6
:102AA000E85EFA4F808160E08F730E945E26D9CF86
:102AB0008091840090918500049680349C4918F49C
:102AC00080E49CE905C08091840090918500049683
:102AD00090938900809388008FEF8093170538C00A
:102AE000209184003091850080911705992787FDFA
:102AF0009095FC01EE0FFF1FE80FF91FE85EFA4FFB
:102B000081819281820F931F909389008093880026
:102B100080911705992787FD9095FC01EE0FFF1F07
:102B2000E80FF91FE85EFA4F808186FF11C080919F
:102B30001705992787FD9095FC01EE0FFF1FE80F01
:102B4000F91FE85EFA4F808161E08F730E945E2674
:102B5000FF91EF91BF91AF919F918F917F916F9175
:102B60005F914F913F912F910F900FBE0F901F904B
:102B70001895209116052C30A0F431E0320F3093D7
:102B80001605FC012083822F90E0FC01EE0FFF1F51
:102B9000E80FF91FE85EFA4F88EB9BE09283818390
:102BA00008952FEFFC0120830895DF92EF92FF92AA
:102BB0000F931F93CF93DF93EC01D62E7A018901F7
:102BC00088818C3008F066C061E08D2D0E9425263A
:102BD0008881A82FB0E0FD01EE0FFF1FEA0FFB1F59
:102BE000E85EFA4F2D2D2F739081907C922B90836D
:102BF00060E272E06E197F0977FF02C06D5F7F4F60
:102C00007595679575956795698340E659E0401B12
:102C1000510B57FF02C04D5F5F4F55954795559536
:102C200047954A836CE00E94752B9CE0899FB00118
:102C3000112420E030E0A901460F571FFA01EE0FE2
:102C4000FF1FE40FF51FE85EFA4F908196FD16C056
:102C50002F5F3F4F2C30310571F781110FC010925B
:102C6000800082E0809381001092850010928400A1
:102C7000B19A80916F00826080936F00888190E0AC
:102C8000FC01EE0FFF1FE80FF91FE85EFA4F80818D
:102C9000806480838881DF91CF911F910F91FF9095
:102CA000EF90DF90089520E639E040E252E00C9486
:102CB000D515FC0180818C3070F5918128E830E0D9
:102CC000291B310997FD3395220F331F220F331F24
:102CD000621773077CF0928128E532E0291B3109E5
:102CE00097FD3395220F331F220F331F621773078F
:102CF0000CF49B0122503109220F331F4FB7F89477
:102D000090E0FC01EE0FFF1FE80FF91FE85EFA4F9D
:102D1000328321834FBF08954F925F926F927F92CB
:102D2000AF92BF92CF92DF92EF92FF920F931F93D9
:102D3000CF93DF93EC01603282E078070CF040C063
:102D400077FD06C0653B71052CF064EB70E002C0B6
:102D500060E070E0898128E830E0281B310987FDB8
:102D60003395220F331F220F331F5901CC24B7FC98
:102D7000C094DC2C882777FD8095982F2A8148E520
:102D800052E0421B510927FD5395440F551F440F34
:102D9000551F2A01662457FC6094762C7F926F920F
:102DA0005F924F9214EBE12EF12C00E010E020E056
:102DB00030E0A9010E94FB280F900F900F900F9018
:102DC000CE01DF91CF911F910F91FF90EF90DF9097
:102DD000CF90BF90AF907F906F905F904F900C948A
:102DE0005916CF93CFB7F89480913C05811127C035
:102DF000E1E5F5E08491EDE3F5E09491E82FF0E072
:102E0000EE0FFF1FE159FA4FA591B4918C918923E0
:102E100021F461E08AE00E945E2661E08AE00E947F
:102E200025268CB580618CBD8CB580648CBD61E03D
:102E30008DE00E94252661E08BE00E94252680918E
:102E40003C058F5F80933C05CFBFCF910895FF92E3
:102E50000F931F93CF93DF93FC010081C181D28137
:102E6000F8948981F02EF0948F21898378941DE75E
:102E7000115029F182E090E00E94992588818023F9
:102E8000B9F3F8948A818F218A838981802B898381
:102E9000789480EE91E00E949925F89489818F21A1
:102EA000898386E490E00E9499258881802311E03F
:102EB00009F010E078948AE991E00E949925812F29
:102EC000DF91CF911F910F91FF9008951F93CF93A2
:102ED000DF93FC011081C181D281912F909560FF19
:102EE00012C0F8948A8189238A838981812B8983FE
:102EF0008AE090E00E9499258A81812B8A837894C8
:102F000087E390E011C0F8948A8189238A838981BC
:102F1000812B898381E490E00E9499258A81812B0D
:102F20008A83789485E090E0DF91CF911F910C9493
:102F300099250F931F93CF93DF93FC011081C181DB
:102F4000D281F8948981812B89838A81012F009510
:102F500080238A8383E090E00E94992589818023E1
:102F600089838AE090E00E949925C881789485E35E
:102F700090E00E9499251C2381E009F480E0DF9114
:102F8000CF911F910F910895CF92DF92EF92FF9210
:102F90000F931F93CF93DF931F92CDB7DEB76C01D2
:102FA000E62E08E010E0FF24F39461E09F2D9E21BF
:102FB00009F460E0C60149830E946617FF0C0150C6
:102FC000110949810115110581F7411115C0F894C6
:102FD000D6011196ED91FC91129791818C9180957B
:102FE000892381831196ED91FC91129792818C91A6
:102FF00080958923828378940F90DF91CF911F91E0
:103000000F91FF90EF90DF90CF900895EF92FF9295
:103010000F931F93CF93DF938C01C8E0D0E0F12C86
:10302000EE24E394C8010E9499178111FE28EE0C4A
:103030002197C1F78F2DDF91CF911F910F91FF90B5
:10304000EF900895CF92DF92FF920F931F93CF934B
:10305000DF931F92CDB7DEB78C01F62E40E065E519
:1030600079830E94C417CF2C7981D72E88E0F82E5F
:10307000F60161916F0140E0C8010E94C417FA9403
:10308000B9F70F90DF91CF911F910F91FF90DF90D3
:10309000CF90089540E06CEC0C94C417FC011386AB
:1030A0001586148627E030E0DF01A20FB31F1396C8
:1030B0001C922115310519F021503109F5CF0895E1
:1030C0001F93CF93DF93EC01162F60E0812F0E94B6
:1030D0002526612F70E0FB01ED5CFA4FE491E88357
:1030E000FB01E95BFA4FE491F0E0EE0FFF1FE55AB8
:1030F000FA4F859194919A838983CE01DF91CF9184
:103100001F910C944E18AF92BF92CF92DF92EF9224
:10311000FF920F931F93CF93DF931F92CDB7DEB72C
:103120005C01E62ED72EFC01858581115DC0C501AD
:103130000E942717811105C0F50113861586148694
:103140006EC040E060EFC5010E94C41701E0F12CA1
:10315000C12C11E0C5010E949917682FC501698330
:103160000E9499176981613019F48130B9F433C034
:103170002F2D30E068131BC0F5018385181730F43C
:10318000E20FF31F8381802349F402C0181731F046
:1031900060E0193058F4F501148708C0F501EF0D0F
:1031A000F11D8381802B838361E009C0C12EF5016D
:1031B000E20FF31F8381902F909589238383C501AC
:1031C0000E9466171F5F000F11F4F39401E0F7E00F
:1031D000FF1508F0BFCF113438F0F501C386C110D8
:1031E00018C081E0858715C0F50113861586148601
:1031F00080E0EE2DFD2D20E030E0D501A20FB31FC1
:1032000013969C9191932F5F3F4F28303105A9F77A
:1032100006C0F5018381882339F381E0EACF0F905E
:10322000DF91CF911F910F91FF90EF90DF90CF90A2
:10323000BF90AF900895DC0180E0615038F0ED91CF
:10324000E827F0E0E656FF4F8491F7CF0895089500
:10325000FC0187E299E1928B818B768365831482EE
:10326000108289E0818381E0828383830895CF93F4
:10327000DF93EB0167E0CE010E941B1991E02F81E3
:10328000821390E0892FDF91CF910895EF92FF9202
:103290000F931F93CF93DF93EC018B01E42E8D816D
:1032A0009E810E944E18F12CB8018D819E810E9452
:1032B0008318882359F0FE1006C0B801CE010E9481
:1032C0003719811104C0F394EF1470F780E0DF9197
:1032D000CF911F910F91FF90EF900895CF92DF92C1
:1032E000EF92FF920F931F93CF93DF9300D0CDB750
:1032F000DEB76C01F42EE52EFC0185819681698391
:103300007A830E94271769817A81882311F1F60157
:10331000858196810E94221840E06EEBF60185813E
:1033200096810E94C4170F2D1E2D89E0F82EF601FC
:10333000858196810E940618F80181938F01FA9485
:10334000B1F7F601858196810E94271791E08130BF
:1033500009F090E0892F0F900F90DF91CF911F918E
:103360000F91FF90EF90DF90CF900895CF93DF9370
:10337000EA010E946E19882351F068E0CE010E9494
:103380001B1991E02885821390E0892F01C080E00D
:10339000DF91CF910895EF92FF920F931F93CF93F8
:1033A000DF93EC018B017A018D819E810E942717AA
:1033B000B8018D819E810E94221840E06EE48D81CB
:1033C0009E810E94C41740E0F70162818D819E8139
:1033D0000E94C41740E0F70163818D819E810E94A5
:1033E000C417F8018081803139F040E0F701648131
:1033F0008D819E810E94C4178D819E810E94271716
:10340000B8018D819E810E942218488168E48D81D7
:103410009E810E94C41764E170E080E090E00E9409
:103420005F258881882331F06AE070E080E090E0D9
:103430000E945F258D819E81DF91CF911F910F9119
:10344000FF90EF900C942717EF92FF921F93CF936A
:10345000DF9300D0CDB7DEB77C01FC01858196817A
:1034600069837A830E94271769817A81F7018581B0
:1034700096810E94221840E064EBF70185819681D5
:103480000E94C417F701858196810E949917182F11
:10349000F701858196810E94271781E0111180E054
:1034A0000F900F90DF91CF911F91FF90EF900895B3
:1034B000EF92FF920F931F93CF93DF93CDB7DEB7B9
:1034C0002A970FB6F894DEBF0FBECDBF7C018B01EB
:1034D000242FAE014F5F5F4F2A870E94B6192A85BD
:1034E0008823D1F0F80180818031C1F02B3041F088
:1034F0002C3021F02A3031F48FE305C08FE703C070
:103500008FE501C08FE18D83AE014F5F5F4FB80142
:10351000C7010E94CB1902C080E001C081E02A9659
:103520000FB6F894DEBF0FBECDBFDF91CF911F91D4
:103530000F91FF90EF900895CF93DF93CDB7DEB753
:1035400029970FB6F894DEBF0FBECDBFFB012081D7
:103550002031D1F0AE014F5F5F4F0E94B619882332
:1035600079F08D818F3351F020F48F3149F489E067
:103570000CC08F3539F08F3739F002C08AE005C0B2
:1035800080E003C08BE001C08CE029960FB6F89470
:10359000DEBF0FBECDBFDF91CF910895EF92FF92B6
:1035A0000F931F93CF93DF93CDB7DEB761970FB61D
:1035B000F894DEBF0FBECDBF8C01FC0185819681E2
:1035C0000E944E18F8011482FF24F394BE01665F36
:1035D0007F4FF801858196810E9483188823C9F165
:1035E000BE01665F7F4FC8010E943719882371F3BF
:1035F000F8018081811108C0BE01665F7F4FC8015C
:103600000E94241A811122C0AE014F5F5F4FBE019C
:10361000665F7F4FC8010E946E19F801E180BE010C
:10362000665F7F4FC8010E949C1A8E1518F4F8013E
:10363000818106C0BE01665F7F4FC8010E949C1A4F
:10364000F801818384818F5F8483C0CFF801F08289
:10365000DBCF61960FB6F894DEBF0FBECDBFDF9112
:10366000CF911F910F91FF90EF900895CF93DF932B
:10367000CDB7DEB729970FB6F894DEBF0FBECDBF2A
:10368000AE014F5F5F4F0E946E1981E099819111E9
:1036900001C080E029960FB6F894DEBF0FBECDBF03
:1036A000DF91CF9108958F929F92AF92BF92CF9268
:1036B000DF92EF92FF920F931F93CF93DF93EC0172
:1036C0008A016950633048F4E62FF0E0EE0FFF1FE7
:1036D000EF5FFB4F8080918004C09EEE892E92E0C8
:1036E000992E0115110501F18B818823E9F088815C
:1036F00081111AC00E9430256B017C01AA2497FC1D
:10370000A094BA2CB801CE010E94361B81111FC0B3
:103710000E943025681979098A099B096C157D0575
:103720008E059F05A0F4EECFB401882777FD809524
:10373000982FDF91CF911F910F91FF90EF90DF9025
:10374000CF90BF90AF909F908F900C945F25DF91AA
:10375000CF911F910F91FF90EF90DF90CF90BF908E
:10376000AF909F908F900895CF93DF93EC018D8160
:103770009E810E9427178D819E810E944A18488150
:1037800064E48D819E810E94C4178A81882341F060
:1037900040E050E06981CE01DF91CF910C94531B42
:1037A000DF91CF910895FA01208148E0249F900194
:1037B0001124818190E0982F8827990F990F990FF4
:1037C000282B392BDB018C918031C1F4678170E0AB
:1037D0008681AB01481B5109CA019695982F88270D
:1037E000979587950E94952B60517109207F53E032
:1037F000220F331F5A95E1F7260F371FC90108958D
:10380000EF92FF920F931F93CF93DF93CDB7DEB765
:1038100029970FB6F894DEBF0FBECDBF8C017B0198
:10382000AE014F5F5F4F0E94B619882341F0AE0191
:103830004F5F5F4FB701C8010E94D31B02C080E8F1
:1038400094EE29960FB6F894DEBF0FBECDBFDF9180
:10385000CF911F910F91FF90EF900895813824EE42
:10386000920774F0BC01882777FD8095982F0E94FD
:103870004E2A20E030E040E05CE30E94FE2A0895FA
:1038800060E070E08EEF92EC08950E94001C0C94B2
:103890002E1C80916D0590E020916E05821B910990
:1038A000089520916E0580916D05281750F4E22F40
:1038B000F0E0E159FA4F808190E02F5F20936E0590
:1038C00008958FEF9FEF0895E0916E0580916D054B
:1038D000E81730F4F0E0E159FA4F808190E0089564
:1038E0008FEF9FEF08950895CF92DF92EF92FF92AE
:1038F0000F931F93CF93DF937C01CB018A0120911B
:103900004905222389F0EB016B01C40ED51ECC15AD
:10391000DD0569F06991D701ED91FC910190F0818D
:10392000E02DC7010995F3CF642F0E94311EC80115
:10393000DF91CF911F910F91FF90EF90DF90CF908B
:103940000895CF93DF931F92CDB7DEB7698320919F
:1039500049052223D1F020914A05203240F021E090
:1039600030E0FC013383228380E090E015C0809139
:103970004B05E82FF0E0E45BFA4F998190838F5F6D
:1039800080934B0580934A0505C061E0CE01019606
:103990000E94311E81E090E00F90DF91CF91089559
:1039A000FC011382128248EE53E060E070E0448331
:1039B0005583668377838BE094E0918380830895B9
:1039C00010926E0510926D0510924B0510924A05EB
:1039D0000C94741D81E08093490560936C051092EE
:1039E0004B0510924A0508950C94EA1C0F93062F7C
:1039F00021E040914A056CE475E080916C050E94DD
:103A0000DA1D10924B0510924A05109249050F914C
:103A100008958F929F92AF92BF92CF92DF92EF92D2
:103A2000FF920F931F93CF93DF93EC01F62ED42ECA
:103A300048015901EE2019F10E94EA1C1E2D143094
:103A400008F013E01150B8F0E881F98128E0129FE6
:103A5000B0011124A501940104C0569547953795EE
:103A600027956A95D2F7CA01B9010190F081E02D3E
:103A7000CE010995E7CF60E0CE010E94F61C4D2DE6
:103A8000413208F040E22C2D6FE675E08F2D0E9448
:103A9000921D10926E0580936D05DF91CF911F915D
:103AA0000F91FF90EF90DF90CF90BF90AF909F90DD
:103AB0008F900895CF92EF920F931F93C22EE12C17
:103AC00000E010E098010E94091D1F910F91EF90F6
:103AD000CF90089521E00C945A1D61E00C94F61CDF
:103AE0008DE395E00C94D01C1092FC0581E080934E
:103AF000FA051092F90561E082E10E945E2661E01C
:103B000083E10E945E26E9EBF0E080818E7F808376
:103B100080818D7F808388E48093B80085E48093E2
:103B2000BC000895413208F043C09091FC0591110A
:103B3000FCCF91E09093FC052093FA052FEF2093A2
:103B40008F051092D405240F2093D3059093FB0585
:103B50009091FB05880F892B8093FB058091F905D7
:103B6000813061F41092F9058091FB058093BB00D0
:103B70008091BC0083FDF8CF85EC01C085EE809379
:103B8000BC008091FC058130E1F38091D40584175D
:103B900010F44091D40525ED35E0FB01D9018A2FC1
:103BA000821B841718F48D918193F9CF842F089587
:103BB00080E008950F93413208F04AC09091FC05CF
:103BC0009111FCCF92E09093FC050093FA059FEFD2
:103BD00090938F051092D4054093D305FB0165EDBA
:103BE00075E0DB019A2F961B941718F491919D9321
:103BF000F9CF1092FB059091FB05880F892B8093DC
:103C0000FB058091F905813061F41092F9058091EE
:103C1000FB058093BB008091BC0083FDF8CF85EC51
:103C200001C085EE8093BC00222321F08091FC0529
:103C30008230E1F380918F058F3F61F080918F0595
:103C4000803251F080918F05803341F483E007C0CA
:103C500081E005C080E003C082E001C084E00F91F4
:103C60000895613298F42091FC05243089F4609322
:103C7000B105FC0183EB95E0DC012A2F281B2617F8
:103C800018F421912D93F9CF80E0089581E00895F3
:103C900082E0089585ED8093BC008091BC0084FD96
:103CA000FCCF1092FC05089585EC8093BC00109227
:103CB000FC0508951F920F920FB60F9211242F93B7
:103CC0003F934F935F936F937F938F939F93AF93A4
:103CD000BF93EF93FF938091B900887F803609F4FA
:103CE0009EC078F5883209F45DC090F4803109F403
:103CF00056C038F4882309F4F5C0883009F44FC061
:103D0000F5C0883109F44EC0803209F45FC0EEC0BE
:103D1000803409F46AC058F4803309F457C08833FA
:103D200009F0E4C080938F050E94541EDFC08035E7
:103D300009F44FC0883509F45DC0883409F0D6C055
:103D4000D3C0883909F4C4C0A8F4883709F467C01F
:103D500038F4883609F463C0803709F460C0C6C0FF
:103D6000883809F4B5C0803909F45FC0803809F09B
:103D7000BDC05BC0803B09F483C038F4803A09F4CD
:103D800066C0883A09F47CC0B1C0803C09F4A4C084
:103D9000883C09F4A1C0883B09F487C0A7C0809182
:103DA000FB0510C09091D4058091D305981770F54C
:103DB000E091D40581E08E0F8093D405F0E0EB52C2
:103DC000FA4F80818093BB0085EC83C080938F0580
:103DD0008BC0E091D40581E08E0F8093D405809153
:103DE000BB00F0E0EB52FA4F80839091D4058091B4
:103DF000D3056BC0E091D40581E08E0F8093D4058C
:103E00008091BB00F0E0EB52FA4F80838091FA057D
:103E100081116AC081E08093F90584EA5EC083E085
:103E20008093FC0510929005CFCF80919005803251
:103E300008F04EC0E091900581E08E0F80939005D0
:103E40008091BB00F0E0EF56FA4F8083BDCF0E9417
:103E5000541E80919005803230F4E0919005F0E09E
:103E6000EF56FA4F10826091900570E0E091F505F1
:103E7000F091F60581E995E009951092900536C01C
:103E800084E08093FC051092B2051092B105E09198
:103E9000F705F091F80509958091B105811105C0EC
:103EA00081E08093B1051092B305E091B20581E005
:103EB0008E0F8093B205F0E0ED54FA4F808180932D
:103EC000BB009091B2058091B105981708F47CCFA2
:103ED00085E88093BC000AC085EC8093BC001092FA
:103EE000FC0504C010928F050E944A1EFF91EF91BD
:103EF000BF91AF919F918F917F916F915F914F9102
:103F00003F912F910F900FBE0F901F901895DC01DD
:103F1000ED91FC910190F081E02D0994803D41F0FC
:103F200018F4823C29F008C0813D11F0823D21F453
:103F3000809312068FEF089590911206911105C09B
:103F400090EE980F9F35B8F465C0903DB1F4109293
:103F5000120690E7980F903310F48151089581383C
:103F6000E1F18338E1F18438E1F18638E1F1873815
:103F7000E1F18E38E1F18AE20895913DB1F41092B9
:103F8000120690E8980F903110F4815D0895813900
:103F900081F1833981F1843981F1863981F1873961
:103FA00081F18E3941F78AEC0895923D41F41092E7
:103FB0001206803941F18139F1F68CEC0895923C7A
:103FC000D1F610921206873A01F1803B01F1813B54
:103FD00001F1853B81F680ED08958FEB089581EC2A
:103FE000089583EC089585EC089587EC089589EC95
:103FF000089580EC089582EC089584EC089586EC91
:10400000089588EC08958BEC08958DEC08958EEC5E
:1040100008958FEC089540E050E060E070E0A1E08A
:10402000B0E0992787FD90959D01042E02C0220FD4
:10403000331F0A94E2F728233923042E02C0220FEB
:10404000331F0A94E2F7F901EE0FFF1FE22BF32B67
:104050006E2B7F2B4F5F5F4F4830510529F7CB0107
:10406000089581E08093FE0510920F0610921006CD
:10407000109211060895CF93C62F6CE370E08DE384
:1040800095E00E94F41C60E870E08DE395E00E94EA
:10409000871F6C2F8DE395E00E94A11C8DE395E0B6
:1040A000CF910C946D1D0F931F93CF93DF93EC0171
:1040B000162F042F67FD19C08B89681303C08C89E4
:1040C000481799F0612F6F70CE010E943B20612F3D
:1040D00062956F70605FCE010E943B2060EB600FC5
:1040E000CE010E943B201B8B0C8BDF91CF911F9147
:1040F0000F91089566EA0C943B206EEA0C943B20E5
:104100006FEA0C943B201F93CF93DF93EC01162FA3
:1041100061E80E943B20612FCE01DF91CF911F917A
:104120000C943B20CF93DF93EC0182E0888360E224
:10413000CE010E943B2062E0CE01DF91CF910C9432
:104140003B20CF93C62F6CE370E08DE395E00E9497
:10415000F41C60E470E08DE395E00E94871F6C2FF3
:104160008DE395E00E94A11C8DE395E0CF910C9426
:104170006D1D7F928F929F92AF92BF92CF92DF92EE
:10418000EF92FF920F931F93CF93DF93EC01962E44
:10419000A72E642F82E08983422FCE010E945320F4
:1041A000BB88092D1A2D25E0722EF80181918F010F
:1041B000882309F43DC00E948E1FF82E8FEFF81659
:1041C000A1F39DE79B1550F060E0CE010E94A12075
:1041D00060E0CE010E94A120B394B3948F2D90E0B3
:1041E0008097789E6001799ED00C1124E12CF12CEF
:1041F000F601E256FE4F6F01FDE7FB1588F0F60170
:10420000EE0DFF1D84910E940B20882E682FCE0199
:104210000E94A120682DCE010E94A120B394B394E6
:104220008FEFE81AF80A95E0E916F10429F7BDCFF7
:104230004C894F5F6B89CE010E945320092D1A2DA6
:1042400095E0A92EF80181918F01882309F43FC0E0
:104250000E948E1FF82EFFEF8F17A1F38B898E37E8
:1042600058F460E0CE010E94A12060E0CE010E94DF
:10427000A1209B899E5F9B8B8F2D90E08097A89EAD
:104280006001A99ED00C1124E12CF12CC6018256AC
:104290009E4F6C018B898E3790F4F601EE0DFF1D59
:1042A00084910E940B20B92E692FCE010E94A1207B
:1042B0006B2DCE010E94A1208B898E5F8B8B9FEF8F
:1042C000E91AF90AE5E0EE16F10421F7BBCF4C89B3
:1042D00041506B89CE01DF91CF911F910F91FF90DB
:1042E000EF90DF90CF90BF90AF909F908F907F9096
:1042F0000C9453200F931F93CF93DF93EC0110E0A6
:10430000412F60E0CE010E94532000E060E0CE012A
:104310000E94A1200F5F0038C9F71F5F183081F796
:1043200040E060E0CE01DF91CF911F910F910C949E
:104330005320CF93DF93EC018DE395E00E94E01CC6
:10434000E8EBF0E080818CE08083CE010E94922037
:10435000CE010E947A2140E060E0CE010E9453200D
:104360008DEF95E00E947D2065ED8DEF95E00E9438
:104370003B2060E88DEF95E00E943B2068EA8DEFDE
:1043800095E00E943B206FE38DEF95E00E943B207B
:1043900063ED8DEF95E00E943B2060E08DEF95E0AE
:1043A0000E943B2060E48DEF95E00E943B206DE889
:1043B0008DEF95E00E943B2064E18DEF95E00E9437
:1043C0003B2060E28DEF95E00E943B2060E08DEFA6
:1043D00095E00E943B2061EA8DEF95E00E943B2032
:1043E00068EC8DEF95E00E943B206AED8DEF95E043
:1043F0000E943B2062E18DEF95E00E943B206FEC34
:104400008DEF95E00E94832069ED8DEF95E00E948D
:104410003B2061EF8DEF95E00E943B206BED8DEF2F
:1044200095E00E943B2060E48DEF95E00E943B20E8
:1044300064EA8DEF95E00E943B208DEF95E00E94AD
:104440007A208DEF95E0DF91CF910C948020803D14
:1044500027E0920710F0805D974050E0E3E1F5E03F
:1044600021E02E1B322F3E0F361728F43491430FD4
:10447000511D3196F7CF633038F09C0123703327FC
:10448000232B11F44F5F5F4F6DE671E0869F900123
:10449000879F300D969F300D1124215031090396CE
:1044A0009695879596958795280F391FC901840F92
:1044B000951F0895CF92EF920F93FC01603D87E026
:1044C000780710F0605D7740608341832283038327
:1044D000E482C5820F91EF90CF900895CF93DF9340
:1044E000EC0188814A81698190E00E9427229C0129
:1044F000A8E1B0E00E94F02B9B01AC018B81280F5A
:10450000311D411D511DACE3B0E00E94FF2B9B010A
:10451000AC018C81280F311D411D511D0E94FF2BC4
:104520002D81620F711D811D911D60587C4B824948
:10453000974CDF91CF9108958DE395E00E94E01CA8
:1045400081E00895CF92DF92EF92FF920F931F9335
:10455000CF93DF93EC0168E670E08DE395E00E9475
:10456000F41C60E08DE395E00E94A11C8DE395E0D2
:104570000E946D1D47E050E068E670E08DE395E035
:104580000E946A1D8DE395E00E94511C8F77982F41
:1045900092959F701AEF082F919F000D11248DE3C3
:1045A00095E00E94511C9C013327A4E03595279586
:1045B000AA95E1F7F82E129FF00C11248DE395E0F7
:1045C0000E94511C9C013327B4E035952795BA957C
:1045D000E1F7E82E129FE00C11248DE395E00E9494
:1045E000511C8DE395E00E94511C9C01332794E0FF
:1045F000359527959A95E1F7D82E129FD00C112466
:104600008DE395E00E94511C9C01332744E03595D1
:1046100027954A95E1F7C82E129FC00C11248DE30F
:1046200095E00E94511C9C01332754E03595279555
:104630005A95E1F7129F800D11248883C982DA828E
:10464000EB82FC820D83CE01DF91CF911F910F9100
:10465000FF90EF90DF90CF900895DC0115966C935A
:10466000159716964C93169770E0FB01ED5CFA4F88
:10467000E4911796EC931797FB01E95BFA4F64916D
:1046800018966C93189740E85EE360E070E01D9622
:104690004D935D936D937C9350970895CF93DF93E3
:1046A000EC0162E08D810E94252640E358EF6FEF18
:1046B0007FEF49875A876B877C87DF91CF91089579
:1046C000AF92BF92CF92DF92EF92FF920F931F9320
:1046D000CF93DF93EC01AF80662311F0BA2C01C0B9
:1046E000B12CA885B0E0AA0FBB1FA55ABA4F40E075
:1046F00050E0BA01FD0185919491FC0180818A21ED
:104700008B1112C08A019B010F5F1F4F2F4F3F4F2C
:10471000CD84DE84EF84F8884C155D056E057F0539
:1047200038F4B901A801E6CF342F252FCB0104C0FE
:1047300030E020E080E090E0632F722FDF91CF9196
:104740001F910F91FF90EF90DF90CF90BF90AF90AF
:104750000895CF92DF92EF92FF920F931F93CF9322
:10476000DF93CDB7DEB7C054D1400FB6F894DEBFAB
:104770000FBECDBF8C01F62E0E943025F11016C061
:10478000F801C184D284E384F4849B01AC012C1928
:104790003D094E095F0969017A0130EDC31637E022
:1047A000D306E104F10410F48189BAC0F8016187ED
:1047B00072878387948714821382128211821082F7
:1047C00061E085810E945E266AEF70E080E090E003
:1047D0000E945F2561E0F80185810E94252660E046
:1047E000F80185810E945E2664E170E080E090E03F
:1047F0000E945F25F89461E0F80185810E945E26A1
:1048000088E290E00E94992562E0F80185810E948B
:1048100025268AE090E00E94992560E0C8010E9468
:104820006023672B682B692B41F061E0C8010E946F
:104830006023672B682B692B21F4F801118A789487
:104840006EC06E01FFEBCF1AFEEFDF0A9E012F5FF5
:104850003F4F790160E0C8010E946023F701608347
:1048600071838283938361E0C8010E946023F70112
:104870006483758386839783F8E0EF0EF11CEC1454
:10488000FD0441F778949E012F5F3F4F790120E0AE
:1048900030E0F7014081518162817381848195818B
:1048A000A681B7814115510561057105B1F10097E8
:1048B000A105B10591F1F901F595E795F595E79514
:1048C000F595E795E00FF11FD080DD0C48175907EB
:1048D0006A077B0710F0D08203C08D2D8160808332
:1048E0002F5F3F4FF8E0EF0EF11C2832310589F6BB
:1048F000F801248130E04081818190E0840F911D96
:104900004281840F911D4381840F911D992728179F
:10491000390719F481E0818B03C0F801118A80E026
:10492000C05CDE4F0FB6F894DEBF0FBECDBFDF9187
:10493000CF911F910F91FF90EF90DF90CF9008954E
:10494000CF92DF92EF92FF92CF93DF93EC0160E082
:104950000E94A923882379F18E818B3029F158F1A7
:104960008551823040F5688170E080E090E00E94DF
:104970004C2A20E030E040E853E40E94FE2A6B011C
:104980007C01698170E080E090E00E944E2A9B01EA
:10499000AC01C701B6010E9454292DEC3CEC4CEC53
:1049A0005DE30E94FE2A0BC0688170E080E090E029
:1049B0000E944C2A04C060E070E080EC9FE7DF9129
:1049C000CF91FF90EF90DF90CF9008951F920F92BC
:1049D0000FB60F9211242F933F938F939F93AF9312
:1049E000BF938091140690911506A0911606B09180
:1049F00017063091130623E0230F2D3720F401967C
:104A0000A11DB11D05C026E8230F0296A11DB11DF1
:104A1000209313068093140690931506A093160610
:104A2000B09317068091180690911906A0911A0666
:104A3000B0911B060196A11DB11D8093180690939D
:104A40001906A0931A06B0931B06BF91AF919F91D0
:104A50008F913F912F910F900FBE0F901F9018953F
:104A60002FB7F89460911406709115068091160680
:104A7000909117062FBF08953FB7F89480911806BC
:104A800090911906A0911A06B0911B0626B5A89B15
:104A900005C02F3F19F00196A11DB11D3FBF66272C
:104AA000782F892F9A2F620F711D811D911D42E071
:104AB000660F771F881F991F4A95D1F708958F9227
:104AC0009F92AF92BF92CF92DF92EF92FF926B01D3
:104AD0007C010E943C254B015C01C114D104E1041E
:104AE000F104F1F00E9452290E943C2568197909CD
:104AF0008A099B09683E73408105910570F321E0A6
:104B0000C21AD108E108F10888EE880E83E0981EE9
:104B1000A11CB11CC114D104E104F10429F7DDCFBB
:104B2000FF90EF90DF90CF90BF90AF909F908F90CD
:104B300008958230910538F0880F991F880F991FCA
:104B400005970197F1F70895789484B5826084BD44
:104B500084B5816084BD85B5826085BD85B5816081
:104B600085BDEEE6F0E0808181608083E1E8F0E0E1
:104B70001082808182608083808181608083E0E810
:104B8000F0E0808181608083E1EBF0E080818460EF
:104B90008083E0EBF0E0808181608083EAE7F0E0F1
:104BA0008081846080838081826080838081816055
:104BB00080838081806880831092C10008958E3048
:104BC00008F08E5087702091810190E4299F900118
:104BD0001124822B80937C0080917A0080648093E2
:104BE0007A0080917A0086FDFCCF80917800209138
:104BF000790090E0922B0895833081F028F4813081
:104C000099F08230A1F008958730A9F08830B9F08A
:104C10008430D1F4809180008F7D03C0809180002A
:104C20008F7780938000089584B58F7702C084B514
:104C30008F7D84BD08958091B0008F7703C08091EF
:104C4000B0008F7D8093B0000895CF93DF9390E004
:104C5000FC01ED5CFA4F2491FC01E95BFA4F849171
:104C6000882349F190E0880F991FFC01E159FA4F20
:104C7000A591B4918B599A4FFC01C591D4919FB7DE
:104C8000611108C0F8948C91209582238C938881BF
:104C900082230AC0623051F4F8948C91322F3095FF
:104CA00083238C938881822B888304C0F8948C9111
:104CB000822B8C939FBFDF91CF9108950F931F9309
:104CC000CF93DF931F92CDB7DEB7282F30E0F901E5
:104CD000E15EFA4F8491F901ED5CFA4F1491F9010C
:104CE000E95BFA4F04910023C9F0882321F069831E
:104CF0000E94FC256981E02FF0E0EE0FFF1FEB59C9
:104D0000FA4FA591B4919FB7F8948C91611103C0AB
:104D10001095812301C0812B8C939FBF0F90DF9151
:104D2000CF911F910F910895CF93DF93282F30E0FB
:104D3000F901E15EFA4F8491F901ED5CFA4FD491EB
:104D4000F901E95BFA4FC491CC2391F081110E94E3
:104D5000FC25EC2FF0E0EE0FFF1FE55AFA4FA5916E
:104D6000B4912C912D2381E090E021F480E002C0E9
:104D700080E090E0DF91CF910895FC01818D228D3C
:104D800090E0805C9F4F821B91098F739927089553
:104D9000FC01918D828D981731F0828DE80FF11D05
:104DA000858D90E008958FEF9FEF0895FC01918D20
:104DB000828D981761F0828DDF01A80FB11D5D967D
:104DC0008C91928D9F5F9F73928F90E008958FEFEB
:104DD0009FEF08958AE598E2892B49F080E090E002
:104DE000892B29F00E945A2881110C940000089503
:104DF000FC01848DDF01A80FB11DA35ABF4F2C9178
:104E0000848D90E001968F739927848FA689B78946
:104E10002C93A089B1898C9180648C93938D848D1F
:104E2000981306C00288F389E02D80818F7D8083EE
:104E30000895CF93DF93EC01888D8823C9F0EA8928
:104E4000FB89808185FD05C0A889B9898C9186FD83
:104E50000FC00FB607FCF5CF808185FFF2CFA88980
:104E6000B9898C9185FFEDCFCE010E94F826E7CF5E
:104E7000DF91CF910895CF92DF92FF920F931F930E
:104E8000CF93DF931F92CDB7DEB76C0181E0D601DF
:104E900058968C9358975B969C915B975C968C91F7
:104EA0005C97981307C05096ED91FC9151978081C3
:104EB00085FD2EC0F601038D10E00F5F1F4F0F73AD
:104EC0001127F02EF601848DF81211C00FB607FCE1
:104ED000F9CFD6015096ED91FC915197808185FFD5
:104EE000F1CFC60169830E94F8266981EBCF838DDB
:104EF000E80FF11DE35AFF4F6083D6015B960C93D8
:104F00005B975296ED91FC915397808180620CC023
:104F1000D6015696ED91FC91579760835096ED918E
:104F2000FC91519780818064808381E090E00F90B4
:104F3000DF91CF911F910F91FF90DF90CF90089557
:104F4000BF92CF92DF92EF92FF92CF93DF93EC016B
:104F50006A017B01B22EE889F98982E080834115DC
:104F600081EE580761057105A1F060E079E08DE3FD
:104F700090E0A70196010E94A92B21503109410917
:104F800051095695479537952795211580E13807A2
:104F900098F0E889F989108260E874E88EE190E081
:104FA000A70196010E94A92B2150310941095109FD
:104FB0005695479537952795EC85FD853083EE8589
:104FC000FF852083188EEC89FD89B082EA89FB89F0
:104FD000808180618083EA89FB8980818860808309
:104FE000EA89FB89808180688083EA89FB898081E6
:104FF0008F7D8083DF91CF91FF90EF90DF90CF90F6
:10500000BF9008951F920F920FB60F9211242F9305
:105010008F939F93EF93FF93E0912C06F0912D06D1
:105020008081E0913206F091330682FD12C09081BA
:10503000809135068F5F8F7320913606821751F06D
:10504000E0913506F0E0E45EF94F958F80933506E8
:1050500001C08081FF91EF919F918F912F910F90CF
:105060000FBE0F901F9018951F920F920FB60F92C0
:1050700011242F933F934F935F936F937F938F935D
:105080009F93AF93BF93EF93FF938CE196E00E94C1
:10509000F826FF91EF91BF91AF919F918F917F91F2
:1050A0006F915F914F913F912F910F900FBE0F9095
:1050B0001F9018958CE196E00E94BD2621E0892B77
:1050C00009F420E0822F089510921F0610921E0608
:1050D00088EE93E0A0E0B0E0809320069093210654
:1050E000A0932206B09323068BE194E090931D06D3
:1050F00080931C0685EC90E0909329068093280607
:1051000084EC90E090932B0680932A0680EC90E04C
:1051100090932D0680932C0681EC90E090932F06BF
:1051200080932E0682EC90E09093310680933006B7
:1051300086EC90E090933306809332061092350609
:105140001092360610923706109238060895CF92C4
:10515000DF92EF92FF920F931F93CF93DF937C0127
:105160006A01EB0100E010E00C151D0571F069917A
:10517000D701ED91FC910190F081E02DC7010995D7
:10518000892B19F00F5F1F4FEFCFC801DF91CF912F
:105190001F910F91FF90EF90DF90CF9008956115D0
:1051A000710581F0DB010D900020E9F7AD01415060
:1051B0005109461B570BDC01ED91FC910280F381F4
:1051C000E02D099480E090E0089567E274E00C948B
:1051D000CF280F931F93CF93DF93EC010E94CF282A
:1051E0008C01CE010E94E528800F911FDF91CF91A5
:1051F0001F910F9108954F925F926F927F92AF929D
:10520000BF92CF92DF92EF92FF920F931F93CF93B3
:10521000DF93CDB7DEB729013A01621B730B840B14
:10522000950B29893A894B895C892A193B094C09D4
:105230005D09298B3A8B4B8B5C8B9B01AC01698997
:105240007A898B899C890E94652BE418F5080609E8
:105250001709A80197010E94CB2B2A0D3B1D4C1D5D
:105260005D1DCA01B901DF91CF911F910F91FF9090
:10527000EF90DF90CF90BF90AF907F906F905F9056
:105280004F90089508950E94A4250E9442290E94EB
:105290006110CAEED6E20E94D2142097E1F30E9478
:1052A000EA26F9CF08955058BB27AA270ED06CC123
:1052B0005DD130F062D120F031F49F3F11F41EF443
:1052C00052C10EF4E095E7FB48C1E92F6ED180F39F
:1052D000BA17620773078407950718F071F49EF5F3
:1052E00086C10EF4E0950B2EBA2FA02D0B01B9014B
:1052F00090010C01CA01A0011124FF27591B99F04C
:10530000593F50F4503E68F11A16F040A22F232F57
:10531000342F4427585FF3CF469537952795A795A7
:10532000F0405395C9F77EF41F16BA0B620B730B4E
:10533000840BBAF09150A1F0FF0FBB1F661F771FBF
:10534000881FC2F70EC0BA0F621F731F841F48F474
:10535000879577956795B795F7959E3F08F0B3CFFA
:105360009395880F08F09927EE0F979587950895E4
:105370000CD00AC102D140F0F9D030F021F45F3FE7
:1053800019F0EBC0511134C1EEC00FD198F399233D
:10539000C9F35523B1F3951B550BBB27AA276217F9
:1053A0007307840738F09F5F5F4F220F331F441F3E
:1053B000AA1FA9F333D00E2E3AF0E0E830D0915076
:1053C0005040E695001CCAF729D0FE2F27D0660F63
:1053D000771F881FBB1F261737074807AB07B0E8A2
:1053E00009F0BB0B802DBF01FF2793585F4F2AF0B8
:1053F0009E3F510568F0B1C0FBC05F3FECF3983EA3
:10540000DCF3869577956795B795F7959F5FC9F714
:10541000880F911D9695879597F90895E1E0660F9D
:10542000771F881FBB1F621773078407BA0720F016
:10543000621B730B840BBA0BEE1F88F7E09508957F
:10544000BCD088F09F5790F0B92F9927B751A0F0A2
:10545000D1F0660F771F881F991F1AF0BA95C9F708
:1054600012C0B13081F0C3D0B1E00895C0C0672F41
:10547000782F8827B85F39F0B93FCCF386957795B8
:105480006795B395D9F73EF49095809570956195A1
:105490007F4F8F4F9F4F0895E89409C097FB3EF4CC
:1054A00090958095709561957F4F8F4F9F4F992371
:1054B000A9F0F92F96E9BB279395F69587957795EF
:1054C0006795B795F111F8CFFAF4BB0F11F460FFAF
:1054D0001BC06F5F7F4F8F4F9F4F16C0882311F007
:1054E00096E911C0772321F09EE8872F762F05C01B
:1054F000662371F096E8862F70E060E02AF09A95B6
:10550000660F771F881FDAF7880F9695879597F9AA
:105510000895990F0008550FAA0BE0E8FEEF161644
:105520001706E807F907C0F012161306E407F50797
:1055300098F0621B730B840B950B39F40A2661F00B
:10554000232B242B252B21F408950A2609F4A140AE
:10555000A6958FEF811D811D089597F99F6780E8BB
:1055600070E060E008959FEF80EC089500240A94B5
:105570001616170618060906089500240A9412162E
:105580001306140605060895092E0394000C11F461
:10559000882352F0BB0F40F4BF2B11F460FF04C00E
:1055A0006F5F7F4F8F4F9F4F089557FD9058440F67
:1055B000551F59F05F3F71F04795880F97FB991F72
:1055C00061F09F3F79F0879508951216130614062F
:1055D000551FF2CF4695F1DF08C0161617061806BC
:1055E000991FF1CF86957105610508940895E89497
:1055F000BB2766277727CB0197F908950BD0C4CF37
:10560000B5DF28F0BADF18F0952309F0A6CFABCFAD
:105610001124EECFCADFA0F3959FD1F3950F50E090
:10562000551F629FF001729FBB27F00DB11D639F54
:10563000AA27F00DB11DAA1F649F6627B00DA11DFA
:10564000661F829F2227B00DA11D621F739FB00DA0
:10565000A11D621F839FA00D611D221F749F332710
:10566000A00D611D231F849F600D211D822F762FA9
:105670006A2F11249F5750408AF0E1F088234AF0A6
:10568000EE0FFF1FBB1F661F771F881F91505040F2
:10569000A9F79E3F510570F060CFAACF5F3FECF3B2
:1056A000983EDCF3869577956795B795F795E795DE
:1056B0009F5FC1F7FE2B880F911D9695879597F9EF
:1056C000089527DF880B990B0895DB018F939F9333
:1056D0000E94FF2BBF91AF91A29F800D911DA39FB0
:1056E000900DB29F900D11240895991B79E004C08C
:1056F000991F961708F0961B881F7A95C9F7809511
:105700000895AA1BBB1B51E107C0AA1FBB1FA61708
:10571000B70710F0A61BB70B881F991F5A95A9F75A
:1057200080959095BC01CD01089597FB072E16F446
:10573000009407D077FD09D00E94812B07FC05D08B
:105740003EF4909581959F4F0895709561957F4F98
:105750000895A1E21A2EAA1BBB1BFD010DC0AA1FB2
:10576000BB1FEE1FFF1FA217B307E407F50720F0CA
:10577000A21BB30BE40BF50B661F771F881F991F45
:105780001A9469F760957095809590959B01AC018E
:10579000BD01CF010895052E97FB1EF400940E94D1
:1057A000E22B57FD07D00E94A92B07FC03D04EF433
:1057B0000C94E22B50954095309521953F4F4F4FDB
:1057C0005F4F089590958095709561957F4F8F4FAD
:1057D0009F4F0895EE0FFF1F0590F491E02D09945F
:1057E000A29FB001B39FC001A39F700D811D112422
:1057F000911DB29F700D811D1124911D08950E946D
:10580000F02BA59F900DB49F900DA49F800D911D2E
:1058100011240895EF920F931F93CF93DF93E80124
:1058200047FF02C034E101C034E0E42FFF27E7FD69
:10583000F095F7FF03C0F195E195F109E32E022FF2
:105840002E2FAE010E946F2CCE01DF91CF911F91C0
:105850000F91EF900895FB01DC0101900D92002063
:10586000E1F70895FA01A191B081009719F410971A
:10587000E1F0CD01DC01CD010D90002011F4C0015B
:1058800013C0FB012191222319F02015D9F7F3CF82
:10589000FB012191201519F41E92119606C02223B6
:1058A000C1F70D900020A1F7D001FA01A193B083B8
:1058B0000895F999FECF92BD81BDF89A992780B5D8
:1058C0000895262FF999FECF1FBA92BD81BD20BD44
:1058D0000FB6F894FA9AF99A0FBE019608956F924E
:1058E0007F929F92AF92BF92CF92DF92EF92FF9200
:1058F0000F931F93CF93DF93CDB7DEB729970FB6E2
:10590000F894DEBF0FBECDBF6A01B22E102F0C334C
:1059100020F4FF24F394F00E02C04CE3F42E0F2D7C
:1059200027E0AE014F5F5F4F0E94ED2D7981272F59
:105930002970213031F0E1FC06C0E0FC06C060E0D7
:1059400005C06DE203C06BE201C060E2AE2DA07144
:1059500073FF36C0662311F084E001C083E08B152D
:1059600010F4B81A01C0B12CA1110BC0F6018B2D97
:1059700090E2882319F091938150FBCFCB0CD11C7E
:10598000B12C662331F0F601608396012F5F3F4F03
:105990006901C6010396E2FE05C02EE4F6012083EC
:1059A00031E404C02EE6F601208331E63183228300
:1059B000FC012B2D30E22223F1F131932150FBCF5A
:1059C00072FF40C0662311F084E001C083E08B15B4
:1059D00010F4B81A01C0B12CA1110BC0F6018B2D27
:1059E00090E2882319F091938150FBCFCB0CD11C0E
:1059F000B12C662331F0F601608396012F5F3F4F93
:105A00006901C6010396E2FE07C029E4F60120837E
:105A10002EE4218326E406C029E6F60120832EE643
:105A2000218326E62283FC012B2D30E2222319F06C
:105A300031932150FBCFFC01EB0DF11D10828EEF55
:105A40009FEFB7C0B1E0611101C0B0E04B2F50E053
:105A50001816190624F49C012F5F3F4F02C021E065
:105A600030E0240F351F112329F0412F50E04F5F04
:105A70005F4F02C040E050E0420F531F2B2D30E03B
:105A80004217530714F4B41A01C0B12C2E2D2871FB
:105A900059F4F6012B2D30E2222319F031932150D5
:105AA000FBCFCB0CD11CB12CBB2331F0F6016083B2
:105AB00096012F5F3F4F6901A1110BC0F6012B2DFD
:105AC00030E3222319F031932150FBCFCB0CD11CB2
:105AD000B12CF80E0A81372F3071A32E74FF03C04A
